:0400000007EF00F016
:1000080063822EED0EF0B9EF11F09D0E0001B16F75
:10001800000EB26FBFEF05F0250EC819D8B40AD08C
:1000280099C0D9FF9AC0DAFFC8C0DFFF994B9A2B55
:10003800BFEF05F0000EC56F000EC46F000EC06F55
:10004800000EBF6F04D00001BF859B4B9C2B9BC04B
:10005800F6FF9CC0F7FFF86A0800F550300AD8B4DC
:10006800F2D79BC0F6FF9CC0F7FFF86A0800F5506E
:10007800EFEC14F0D8A036D0000E0001C56F000ECA
:10008800C46FC4C02AF0C5C02BF0000E2D6E0A0E36
:100098002C6E73EC14F02AC0C4F02BC0C5F0D00E3F
:1000A8000001A66FFF0EA76F9BC0F6FF9CC0F7FF6D
:1000B800F86A0800F550A86FA96BA651A827A751A0
:1000C800A923A851C427A951C5239B4B9C2B9BC08E
:1000D800F6FF9CC0F7FFF86A0800F550EFEC14F043
:1000E800D8B0CFD79BC0F6FF9CC0F7FFF86A0800CE
:1000F800F5502E0AD8A432D00001C08D9B4B9C2B02
:10010800000EC76F000EC66F1DD0C6C02AF0C7C04C
:100118002BF0000E2D6E0A0E2C6E73EC14F09BC0A3
:10012800F6FF9CC0F7FFF86A0800F5502A26000E73
:100138002B22D00E2A240001C66FFF0E2B20C76F7A
:100148009B4B9C2B9BC0F6FF9CC0F7FFF86A0800EE
:10015800F550EFEC14F0D8A07ED0D7D7000E0001F0
:10016800C76F000EC66FC08976D0C08592D0B1C067
:10017800D9FFB2C0DAFFDECFAFF0DDCFB0F0020EAC
:10018800B127000EB223AF51B011D8A404D0D70EB6
:10019800AF6FFF0EB06F000EB46F000EB36F02D0DA
:1001A800B34BB42BB351AF25A66FB451B021A76F91
:1001B800A6C0F6FFA7C0F7FFF86A0800F5500009C7
:1001C800D8A4EED7C651C711D8B40AD0B351C65D6A
:1001D800B451C759D8B004D0C6C0B3F0C7C0B4F042
:1001E800C451B35DC551B459D8B005D0B351C45F3B
:1001F800B451C55B0DD0000EC56F000EC46F08D09A
:1002080099C0D9FF9AC0DAFF200EDF6E994B9A2B5E
:10021800C407D8A0C507C429F3E1C529D8B411D0AB
:10022800EFD7AFC0F6FFB0C0F7FFF86A99C0D9FFA3
:100238009AC0DAFF0800F5CFDFFFAF4BB02B994B20
:100248009A2BB307D8A0B407B329EBE1B429D8B4E3
:10025800BFEF05F0E6D79BC0F6FF9CC0F7FF000193
:100268009B4B9C2BF86A0800F5CFC8F0C851000AD0
:10027800D8B4CDEF05F0640AD8B40BD0020AD8B4CC
:1002880074D70F0AD8B405D01A0AD8B470D7BFEFFC
:1002980005F0070EC015D8B433D3C0A904D0000E9A
:1002A800C76F060EC66FB1C0D9FFB2C0DAFFDECF86
:1002B800C1F0DECFC2F0DDCFC3F0030EB127000ED0
:1002C800B223C3AF11D0C1C01CF0C2C01DF0C3C05F
:1002D8001EF099EC14F01CC0C1F01DC0C2F01EC085
:1002E800C3F0030E0001BF13000EBE6F000EBD6FFA
:1002F800C151C211C311D8B486D0820EA66FFF0EA9
:10030800A76FC1C0A8F0C2C0A9F0C3C0AAF0C4C0FA
:10031800ABF0100E05D0D890AB33AA33A933A8336D
:10032800E82EF9D7A851A625BD6F000EA721BE6FEC
:10033800BD07D8A0BE07BDC02AF0BEC02BF0000E76
:100348002D6E030E2C6E73EC14F02AC0BDF02BC07A
:10035800BEF0BDC022F0BEC023F0000E256E0A0E0E
:10036800246ED0EC0FF022C0BDF023C0BEF0000117
:10037800BEAF03D0BD07D8A0BE07BD510008D4EC5E
:1003880005F05BC0B5F05CC0B6F05DC0B7F0B5C0B5
:100398004CF0B6C04DF0B7C04EF0C1C04FF0C2C06F
:1003A80050F0C3C051F0E2EC0CF04CC0B5F04DC0B9
:1003B800B6F04EC0B7F0B5C01CF0B6C01DF0B7C05F
:1003C8001EF0000E1F6E800E206E3F0E216E88EC10
:1003D8000FF0D8B005D00001BD07D8A0BE0713D0D4
:1003E800B5C01CF0B6C01DF0B7C01EF0000E1F6EE1
:1003F800200E206E410E216E88EC0FF0D8A003D09D
:100408000001BD4BBE2B0001C7BF06D0C7511BE181
:100418000D0EC65DD8B017D0C1C087F0C2C088F035
:10042800C3C089F0C65108EC08F05BC08AF05CC014
:100438008BF05DC08CF062EC0AF087C0C1F088C018
:10044800C2F089C0C3F00001BEBF06D0BE511FE193
:100458000A0EBD5DD8B01BD0C151C211C311D8B4AA
:1004680055D0C1C084F0C2C085F0C3C086F066EC28
:100478000CF000018451851186118711D8B4BEBFD4
:1004880045D0BE5104E1020EBD5DD8A03FD0B5C035
:100498001CF0B6C01DF0B7C01EF0700E1F6E890E9E
:1004A800206E400E216E88EC0FF0D8B003D000010A
:1004B800F70E02D00001F80EBD27FF0EBE23BD5176
:1004C800D4EC05F05BC0B5F05CC0B6F05DC0B7F029
:1004D800C1C01CF0C2C01DF0C3C01EF0B5C01FF0E3
:1004E800B6C020F0B7C021F039EC0BF01CC0B9F051
:1004F8001DC0BAF01EC0BBF01FC0BCF0000E00014A
:10050800C16F000EC26F000EC36F33D0C1C084F03C
:10051800C2C085F0C3C086F066EC0CF084C0B9F0A8
:1005280085C0BAF086C0BBF087C0BCF0C1C093F0EC
:10053800C2C094F0C3C095F0B9C024F0BAC025F089
:10054800BBC026F0BCC027F08BEC11F024C096F09D
:1005580025C097F026C098F081EC12F093C0C1F046
:1005680094C0C2F095C0C3F0000E0001BE6F000E2B
:10057800BD6F010EC86F0A0EC819D8B41BD0C85178
:10058800040DFF0EF324F66EFE0EF420F76EF86AE3
:10059800000EF8220900F550B95D0900F550BA5966
:1005A8000900F550BB590900F550BC59D8A002D034
:1005B800C82BE1D7C8C0A6F0A76BA6BFA707C6512E
:1005C800A627C751A723BD51A627BE51A723A651C9
:1005D800C45FA751C55BC651C711D8B403D0C407BF
:1005E800D8A0C507030EBF15A66F000EC015A76FCC
:1005F800A651A711D8B403D0C407D8A0C507BFA572
:1006080031D0030EBF15A66F000EC015A76FA651F7
:10061800A711D8B414D099C0D9FF9AC0DAFF2D0E0B
:10062800DF6E994B9A2B0BD099C0D9FF9AC0DAFF8D
:10063800300EDF6E994B9A2BC407D8A0C507C5BFEB
:1006480075D0C551F1E1C405D8A070D0EDD799C0D7
:10065800D9FF9AC0DAFF200EDF6E994B9A2BC40798
:10066800D8A0C507C5BF05D0C551F1E1C405D8B0AC
:10067800EED7030EBF15A66F000EC015A76FA651C3
:10068800A711D8B453D099C0D9FF9AC0DAFF2D0E5C
:100698004AD0B9C01CF0BAC01DF0BBC01EF0BCC027
:1006A8001FF0C851040DFF0EF324F66EFE0EF42061
:1006B800F76EF86A000EF8220900F5CF20F009005D
:1006C800F5CF21F00900F5CF22F00A00F5CF23F08D
:1006D80012EC10F01CC0B5F01DC0B6F01EC0B7F08B
:1006E8001FC0B8F0B5C029F0B6C02AF0B7C02BF0CB
:1006F800B8C02CF00A0E2D6E000E2E6E000E2F6E56
:10070800000E306E27EC11F029C0B5F02AC0B6F003
:100718002BC0B7F02CC0B8F00001B551300F99C00C
:10072800D9FF9AC0DAFFDF6E994B9A2BC807C82900
:10073800D8B40CD0AED799C0D9FF9AC0DAFF300E22
:10074800DF6E994B9A2BBD07D8A0BE07BEBF05D058
:10075800BE51F1E1BD05D8B0EED7C7BF09D0C7512A
:1007680004E1090EC65DD8A003D0080EC86F02D0F8
:10077800C6C0C8F0C851C65F000EC8BFFF0EC75B31
:10078800C851D8B408D099C0D9FF9AC0DAFF2E0E44
:10079800DF6E994B9A2BC851D4EC05F05BC0ACF0D6
:1007A8005CC0ADF05DC0AEF0C1C04FF0C2C050F04B
:1007B800C3C051F0ACC04CF0ADC04DF0AEC04EF06F
:1007C800E2EC0CF04CC084F04DC085F04EC086F0D1
:1007D80066EC0CF084C0B9F085C0BAF086C0BBF0F6
:1007E80087C0BCF077D0B9C01CF0BAC01DF0BBC040
:1007F8001EF0BCC01FF00001C851040DFF0EF32409
:10080800F66EFE0EF420F76EF86A000EF822090064
:10081800F5CF20F00900F5CF21F00900F5CF22F03F
:100828000A00F5CF23F012EC10F01CC0B5F01DC083
:10083800B6F01EC0B7F01FC0B8F0B5C029F0B6C0FA
:100848002AF0B7C02BF0B8C02CF00A0E2D6E000E9F
:100858002E6E000E2F6E000E306E27EC11F029C0A0
:10086800B5F02AC0B6F02BC0B7F02CC0B8F0000124
:10087800B551300F99C0D9FF9AC0DAFFDF6E994B96
:100888009A2BB9C029F0BAC02AF0BBC02BF0BCC063
:100898002CF0C851040DFF0EF324F66EFE0EF42062
:1008A800F76EF86A000EF8220900F5CF2DF009005E
:1008B800F5CF2EF00900F5CF2FF00A00F5CF30F074
:1008C80027EC11F029C0B9F02AC0BAF02BC0BBF050
:1008D8002CC0BCF00001C807C829D8B40CD083D7F5
:1008E80099C0D9FF9AC0DAFF300EDF6E994B9A2B68
:1008F800C607D8A0C707C651C711D8B43CD1F0D78E
:10090800B1C0D9FFB2C0DAFFDECFB9F0DDCFBAF09F
:10091800000EBABFFF0EBB6FBC6F020EB127000EF0
:10092800B223BCAF0AD0030EBF13BC1FBB1FBA1F34
:10093800B96D000EBA23BB23BC23C651C711D8A476
:1009480008D0B951BA11BB11BC11D8A402D0C64BFA
:10095800C72B010EC86F0A0EC819D8B41BD0C851CE
:10096800040DFF0EF324F66EFE0EF420F76EF86AFF
:10097800000EF8220900F550B95D0900F550BA5982
:100988000900F550BB590900F550BC59D8A002D050
:10099800C82BE1D7800EC8BF7F0EA66FC651C85DB1
:1009A800C751800AA659D8B003D0C6C0C8F010D025
:1009B800C751800AA66FC851C65D800EC8BF7F0E9A
:1009C800A659D8B005D0C851C66FC76BC6BFC707F0
:1009D800C451C511D8B40DD0030EBF15A66F000EB3
:1009E800C015A76FA651A711D8B403D0C407D8A0C3
:1009F800C507C0AD13D0C451C65DC751800AA66FE4
:100A0800C551800AA659D8B005D0C651C45FC75190
:100A1800C55B04D0000EC56F000EC46F800EC8BF42
:100A28007F0EA66FC451C85DC551800AA659D8B0BB
:100A380007D0C851C45F000EC8BFFF0EC55B04D005
:100A4800000EC56F000EC46FBFA522D0030EBF15E0
:100A5800A66F000EC015A76FA651A711D8B408D06D
:100A680099C0D9FF9AC0DAFF2D0EDF6E994B9A2BE9
:100A7800C451C511D8B477D099C0D9FF9AC0DAFF4C
:100A8800300EDF6E994B9A2BC407D8A0C507F0D754
:100A9800C451C511D8B40FD099C0D9FF9AC0DAFF94
:100AA800200EDF6E994B9A2BC407D8A0C507C451F6
:100AB800C511D8A4F1D7030EBF15A66F000EC01537
:100AC800A76FA651A711D8B44ED099C0D9FF9AC024
:100AD800DAFF2D0EDF6E45D0C6C0A6F0C7C0A7F05E
:100AE800D890A637A737D890A637A737FF0EA625E0
:100AF800F66EFE0EA721F76EF86A000EF8220900BE
:100B0800F5CF20F00900F5CF21F00900F5CF22F04C
:100B18000A00F5CF23F0B9C01CF0BAC01DF0BBC065
:100B28001EF0BCC01FF012EC10F01CC029F01DC054
:100B38002AF01EC02BF01FC02CF00A0E2D6E000EDE
:100B48002E6E000E2F6E000E306E27EC11F029501D
:100B5800300F0001C86F99C0D9FF9AC0DAFFC8C02A
:100B6800DFFF994B9A2BC607D8A0C707C629B4E15F
:100B7800C729D8A4B1D79BC0F6FF9CC0F7FF9B4BF1
:100B88009C2BF86A0800F5CFC8F0C851D8A410EF1C
:100B980000F099C0D9FF9AC0DAFF000EDF6E12008C
:100BA8000001836F000183AF18D1836D8351800AE0
:100BB800120FD8A09CD0000E2D6E030E2C6E000EC6
:100BC800256E0A0E246E000E1F6E640E1E6E835173
:100BD8001C6E1D6A1CBE1D0653EC10F01CC022F0D2
:100BE8001DC023F0D0EC0FF0090E22242A6E000E4F
:100BF80023202B6E73EC14F04E0E2A24F66EFF0E93
:100C08002B20F76EF86A000EF8220900F5CF4FF096
:100C18000900F5CF50F00A00F5CF51F0000E256E0F
:100C2800640E246E00018351226E236A22BE2306BD
:100C3800D0EC0FF0120E22242A6E000E23202B6E09
:100C4800000E2D6E030E2C6E73EC14F04E0E2A243B
:100C5800F66EFF0E2B20F76EF86A000EF8220900D8
:100C6800F5CF4CF00900F5CF4DF00A00F5CF4EF066
:100C7800E2EC0CF04CC080F04DC081F04EC082F028
:100C880080C04CF081C04DF082C04EF0000E2D6E39
:100C9800030E2C6E000E1F6E0A0E1E6E000183518D
:100CA8001C6E1D6A1CBE1D0653EC10F01CC02AF0F9
:100CB8001DC02BF073EC14F04E0E2A24F66EFF0EB6
:100CC8002B20F76EF86A000EF8220900F5CF4FF0D6
:100CD8000900F5CF50F00A00F5CF51F0E2EC0CF026
:100CE8004CC05BF04DC05CF04EC05DF012000001DE
:100CF8008351800A750FD8A05AD0000E256E0A0EAF
:100D0800246E8351226E236A22BE2306D0EC0FF094
:100D1800090E22242A6E000E23202B6E000E2D6E43
:100D2800030E2C6E73EC14F04E0E2A24F66EFF0E92
:100D38002B20F76EF86A000EF8220900F5CF4CF068
:100D48000900F5CF4DF00A00F5CF4EF0000E2D6EDC
:100D5800030E2C6E000E1F6E0A0E1E6E00018351CC
:100D68001C6E1D6A1CBE1D0653EC10F01CC02AF038
:100D78001DC02BF073EC14F04E0E2A24F66EFF0EF5
:100D88002B20F76EF86A000EF8220900F5CF4FF015
:100D98000900F5CF50F00A00F5CF51F0E2EC0CF065
:100DA8004CC05BF04DC05CF04EC05DF0120000011D
:100DB8008351030D4E0EF324F66EFF0EF420F76EEA
:100DC800F86A000EF8220900F5CF5BF00900F5CFAC
:100DD8005CF00A00F5CF5DF012008351800A120F13
:100DE800D8A09CD0000E2D6E030E2C6E000E256E22
:100DF8000A0E246E000E1F6E640E1E6E83511C6E4A
:100E08001D6A1CBE1D0653EC10F01CC022F01DC04C
:100E180023F0D0EC0FF0090E22242A6E000E2320B6
:100E28002B6E73EC14F0270E2A24F66EFF0E2B207F
:100E3800F76EF86A000EF8220900F5CF4FF00900A6
:100E4800F5CF50F00A00F5CF51F0000E256E640E74
:100E5800246E00018351226E236A22BE2306D0EC41
:100E68000FF0120E22242A6E000E23202B6E000E85
:100E78002D6E030E2C6E73EC14F0270E2A24F66EDA
:100E8800FF0E2B20F76EF86A000EF8220900F5CF46
:100E98004CF00900F5CF4DF00A00F5CF4EF0E2EC2A
:100EA8000CF04CC080F04DC081F04EC082F080C084
:100EB8004CF081C04DF082C04EF0000E2D6E030E36
:100EC8002C6E000E1F6E0A0E1E6E000183511C6EE2
:100ED8001D6A1CBE1D0653EC10F01CC02AF01DC074
:100EE8002BF073EC14F0270E2A24F66EFF0E2B203D
:100EF800F76EF86A000EF8220900F5CF4FF00900E6
:100F0800F5CF50F00A00F5CF51F0E2EC0CF04CC0F0
:100F18005BF04DC05CF04EC05DF0120000018351E3
:100F2800800A750FD8A05AD0000E256E0A0E246EBE
:100F38008351226E236A22BE2306D0EC0FF0090EDD
:100F480022242A6E000E23202B6E000E2D6E030E17
:100F58002C6E73EC14F0270E2A24F66EFF0E2B204D
:100F6800F76EF86A000EF8220900F5CF4CF0090078
:100F7800F5CF4DF00A00F5CF4EF0000E2D6E030EA2
:100F88002C6E000E1F6E0A0E1E6E000183511C6E21
:100F98001D6A1CBE1D0653EC10F01CC02AF01DC0B3
:100FA8002BF073EC14F0270E2A24F66EFF0E2B207C
:100FB800F76EF86A000EF8220900F5CF4FF0090025
:100FC800F5CF50F00A00F5CF51F0E2EC0CF04CC030
:100FD8005BF04DC05CF04EC05DF012000001835123
:100FE800030D270EF324F66EFF0EF420F76EF86A51
:100FF800000EF8220900F5CF5BF00900F5CF5CF090
:101008000A00F5CF5DF012000001866F6D0E000139
:101018008665A8D0000E2D6E030E2C6E000E256E70
:101028000A0E246E000E1F6E640E1E6E86C01CF023
:101038001D6A53EC10F01CC022F01DC023F0D0EC48
:101048000FF0090E22242A6E000E23202B6E73EC5B
:1010580014F04E0E2A24F66EFF0E2B20F76EF86A57
:10106800000EF8220900F5CF4FF00900F5CF50F037
:101078000A00F5CF51F0000E256E640E246E86C06E
:1010880022F0236AD0EC0FF0120E22242A6E000EF2
:1010980023202B6E000E2D6E030E2C6E73EC14F0B5
:1010A8004E0E2A24F66EFF0E2B20F76EF86A000EFD
:1010B800F8220900F5CF4CF00900F5CF4DF00A00F1
:1010C800F5CF4EF0E2EC0CF04CC083F04DC084F04C
:1010D8004EC085F0000E2D6E030E2C6E000E1F6E96
:1010E8000A0E1E6E86C01CF01D6A53EC10F01CC060
:1010F8002AF01DC02BF073EC14F04E0E2A24F66E65
:10110800FF0E2B20F76EF86A000EF8220900F5CFC3
:101118004FF00900F5CF50F00A00F5CF51F083C029
:101128004CF084C04DF085C04EF0E2EC0CF04CC0A1
:1011380080F04DC081F04EC082F080C04CF081C07C
:101148004DF082C04EF0000E4F6E000E506E3F0EF6
:10115800516EE2EC0CF04CC05BF04DC05CF04EC040
:101168005DF012000A0E0001866569D0000E2D6E32
:10117800030E2C6E000E1F6E0A0E1E6E86C01CF02B
:101188001D6A53EC10F01CC02AF01DC02BF073EC44
:1011980014F04E0E2A24F66EFF0E2B20F76EF86A16
:1011A800000EF8220900F5CF4FF00900F5CF50F0F6
:1011B8000A00F5CF51F0000E256E0A0E246E86C087
:1011C80022F0236AD0EC0FF0090E22242A6E000EBA
:1011D80023202B6E000E2D6E030E2C6E73EC14F074
:1011E8004E0E2A24F66EFF0E2B20F76EF86A000EBC
:1011F800F8220900F5CF4CF00900F5CF4DF00A00B0
:10120800F5CF4EF0E2EC0CF04CC083F04DC084F00A
:101218004EC085F083C04CF084C04DF085C04EF0C0
:10122800000E4F6E000E506E3F0E516EE2EC0CF049
:101238004CC05BF04DC05CF04EC05DF01200000188
:101248008651030D4E0EF324F66EFF0EF420F76E52
:10125800F86A000EF8220900F5CF4CF00900F5CF26
:101268004DF00A00F5CF4EF0000E4F6E000E506E96
:101278003F0E516EE2EC0CF04CC05BF04DC05CF0E0
:101288004EC05DF01200BDEC14F05AEC11F00C0EDB
:1012980010EC12F014EC15F01FEC15F0D09E000EB7
:1012A800F26E000EF16E000EF06EF28EF28CF28A83
:1012B800000ED56ED550F80B0309D56ED58EF28881
:1012C800F086F088F18CF18AF1880400E5EC11F0E1
:1012D800F4EC10F037EC0FF08BEC10F0FEEC14F09F
:1012E80081A608D059D00400000E1D6EFA0E1C6E9F
:1012F80086EC14F081A6F7D701018A51D8A421D031
:101308008B51D8A407D08E0E1C6E010E1D6EE8EC12
:1013180013F03BD001018B05D8A407D08E0E1C6EAC
:10132800010E1D6E22EC13F030D0020E01018B1954
:10133800D8A42BD08E0E1C6E010E1D6E41EC13F03E
:1013480024D001018A05D8A420D08B51D8A407D075
:10135800840E1C6E010E1D6EE8EC13F016D0010110
:101368008B05D8A407D0840E1C6E010E1D6E22ECCE
:1013780013F00BD0020E01018B19D8A406D0840EED
:101388001C6E010E1D6E41EC13F0010E1D6E2C0E2D
:101398001C6E86EC14F074D081A808D059D00400D3
:1013A800000E1D6EFA0E1C6E86EC14F081A8F7D79D
:1013B80001018A51D8A421D08B51D8A407D08E0E10
:1013C8001C6E010E1D6E60EC13F03BD001018B0505
:1013D800D8A407D08E0E1C6E010E1D6EC3EC12F041
:1013E80030D0020E01018B19D8A42BD08E0E1C6EA2
:1013F800010E1D6EE3EC12F024D001018A05D8A479
:1014080020D08B51D8A407D0840E1C6E010E1D6EFF
:1014180060EC13F016D001018B05D8A407D0840E18
:101428001C6E010E1D6EC3EC12F00BD0020E0101F2
:101438008B19D8A406D0840E1C6E010E1D6EE3EC29
:1014480012F0010E1D6E2C0E1C6E86EC14F018D0D6
:1014580081AA08D015D00400000E1D6EFA0E1C6E6D
:1014680086EC14F081A0F7D78A0E1C6E010E1D6E53
:101478009AEC13F0010E1D6E2C0E1C6E86EC14F007
:1014880062A008D0000E1D6EC80E1C6E86EC14F00B
:1014980062901BD762A208D0000E1D6EC80E1C6E8B
:1014A80086EC14F0629211D762A40FD7000E1D6E5D
:1014B800C80E1C6E86EC14F0629407D789C08DF0B4
:1014C80000018E6B8F6B88358D3701E38E818D51CE
:1014D800926F8CC08DF08E6B8F6B8B358D3701E3DF
:1014E8008E818D51916F9251D8B40BD09151925DEC
:1014F800D8B00ED09251000891258D6F180E8D65C9
:1015080007D08AC087F08BC088F08CC089F01200A1
:101518009151D8B40BD09251915DD8B00ED0915161
:10152800000892258D6F180E8D6507D087C087F04B
:1015380088C088F089C089F01200060E906F89BFB4
:10154800908F8CBF908D888FFF0E8717FF0E88179E
:10155800000E89178B8FFF0E8A17FF0E8B17000E50
:101568008C179151925DD8B01BD0D8908A378B37A1
:101578008C37910792519119D8B40DD0900790C02B
:101588008DF0070E8D17D8B406D0EFD7D8908933D1
:1015980088338733922B91519219D8B41FD0F6D73C
:1015A8009251915DD8B01AD0D8908737883789374B
:1015B800920792519119D8B40DD0900790C08DF030
:1015C800070E8D17D8B406D0EFD7D8908C338B334D
:1015D8008A33912B91519219D8A4F7D790AF0CD098
:1015E800FF0E871BFF0E881BFF0E891B010E872726
:1015F800000E8823000E892390AD0CD0FF0E8A1BA5
:10160800FF0E8B1BFF0E8C1B010E8A27000E8B23EF
:10161800000E8C23000E906F87518A2788518B23E8
:1016280089518C238CAF0ED0FF0E8A1BFF0E8B1BAB
:10163800FF0E8C1B010E8A27000E8B23000E8C23B5
:10164800010E906F8AC01CF08BC01DF08CC01EF07C
:1016580092C01FF090C020F08BEC0EF01CC087F0F9
:101668001DC088F01EC089F012001EC022F0236A37
:10167800246A1D34223601E3238022502A6E2A5020
:10168800D8A409D0000E1C6E000E1D6E000E1E6E32
:10169800000E1F6E120021C022F0236A246A203433
:1016A800223601E323802250296E2950D8A409D07C
:1016B800000E1C6E000E1D6E000E1E6E000E1F6EBC
:1016C80012001D8EFF0E1C16FF0E1D16000E1E1694
:1016D800208EFF0E1F16FF0E2016000E2116000E7C
:1016E800256E000E266E000E276E000E286E7F0EE9
:1016F8002A5E2950980F2A5E180E296ED890253632
:101708002636273628361F501C5C20501D5821507D
:101718001E58D8A007D01F501C5E20501D5A2150BB
:101728001E5A2580D8901C361D361E36292EE6D71F
:101738002AAE16D02A50800A970FD8B009D0000ECA
:101748001C6E000E1D6E000E1E6E000E1F6E120027
:10175800D89028322732263225322A3EF9D715D09A
:10176800170E2A640FD0000E1C6E000E1D6E000EA0
:101778001E6E000E1F6E1200D890253626362736AC
:1017880028362A062A50D8A4F7D725C01CF026C028
:101798001DF027C01EF028C01FF012001E341F3491
:1017A800276E2750D8A409D0000E1C6E000E1D6E9F
:1017B800000E1E6E000E1F6E120021342234266E9B
:1017C8002650D8A409D0000E1C6E000E1D6E000E07
:1017D8001E6E000E1F6E12001E8EFF0E1C16FF0ED0
:1017E8001D16FF0E1E16000E1F16218EFF0E1F1649
:1017F800FF0E2016FF0E2116000E2216000E226E76
:10180800000E236E000E246E000E256E7F0E275EDE
:101818002650A00F275E200E266ED890223623363B
:10182800243625361F501C5C20501D5821501E5848
:1018380022501F58D8A009D01F501C5E20501D5A96
:1018480021501E5A22501F5A2280D8901C361D360D
:101858001E361F36262EE1D727AE16D02750800A0F
:101868009F0FD8B009D0000E1C6E000E1D6E000E22
:101878001E6E000E1F6E1200D890253224322332BD
:101888002232273EF9D715D01F0E27640FD0000E3D
:101898001C6E000E1D6E000E1E6E000E1F6E1200D6
:1018A800D890223623362436253627062750D8A442
:1018B800F7D722C01CF023C01DF024C01EF025C09D
:1018C8001FF0120086C088F00001896B8A6B85358D
:1018D800883701E389818851926F9251D8A409D041
:1018E800000E846F000E856F000E866F000E876FE6
:1018F8001200170E886F84C089F085C08AF086C0F0
:101908008BF088298C6F04D0D8908B338A33893335
:101918008C2FFAD7000189518D6F858FFF0E8417A0
:10192800FF0E8517000E861784518E6F85518F6FB5
:101938008651906F916B8E0E925F92AF16D0925136
:10194800800A8F0FD8B009D0000E846F000E856F03
:10195800000E866F000E876F1200D8909133903377
:101968008F338E33923FF9D715D0170E92650FD06B
:10197800000E846F000E856F000E866F000E876F55
:101988001200D8908E378F3790379137920792513F
:10199800D8A4F7D78D51D8B408D0911F901F8F1FA6
:1019A8008E6D000E8F23902391238EC084F08FC0FC
:1019B80085F090C086F091C087F012004EC052F0BA
:1019C800536A546A4D34523601E353805250556E6F
:1019D8005550D8A407D0000E4C6E000E4D6E000E68
:1019E8004E6E120051C052F0536A546A5034523647
:1019F80001E3538052505A6E5A50D8A407D0000EB3
:101A08004C6E000E4D6E000E4E6E12005A507B0F3B
:101A180055264EC05AF051505A1A800E5A164D8EFD
:101A2800508EFF0E4F16FF0E5016000E5116000E68
:101A3800566E000E576E000E586E070E596E4CA06B
:101A480006D04F5056265050572251505822D89001
:101A58004E324D324C32D8904F3650365136592E80
:101A6800EED7090E596E4CA006D04F50562650504E
:101A7800572251505822D8904E324D324C32D8907D
:101A8800583257325632592EEED756C01CF057C02E
:101A98001DF058C01EF055C01FF05AC020F08BEC46
:101AA8000EF01CC04CF01DC04DF01EC04EF01200D0
:101AB80036C03AF03B6A3C6A35343A3601E33B803B
:101AC8003A50416E4150D8A407D0000E346E000E33
:101AD800356E000E366E120039C03AF03B6A3C6A29
:101AE80038343A3601E33B803A50426E4250D8A42B
:101AF80007D0000E346E000E356E000E366E1200E2
:101B0800000E3E6E000E3F6E000E406E4250890F72
:101B1800415E36C042F03950421A800E4216358E68
:101B2800FF0E3416FF0E3516000E3616388EFF0ED1
:101B38003716FF0E3816000E3916180E3D6ED8905F
:101B48003E363F3640363750345C38503558395079
:101B58003658D8A007D03750345E3850355A3950E7
:101B6800365A3E80D8903436353636363D2EE7D74D
:101B78003EC01CF03FC01DF040C01EF041C01FF029
:101B880042C020F08BEC0EF01CC034F01DC035F0C4
:101B98001EC036F0120006C001F007C002F05FEC6C
:101BA80012F00009D8A4120006C0D9FF07C0DAFF56
:101BB800DE06000EDD5A06C0D9FF07C0DAFFDE28B0
:101BC80048E1DE28D8A4120006C0D9FF07C0DAFF12
:101BD8003B0EDE6E000EDD6E20EE02F00650D926BA
:101BE8000750DA22DE06000EDD5A20EE02F006501B
:101BF800D9260750DA22DE282CE1DE28D8A41200E4
:101C080020EE02F00650D9260750DA223B0EDE6E8F
:101C1800000EDD6E20EE04F00650D9260750DA22B9
:101C2800DE06000EDD5A20EE04F00650D9260750D5
:101C3800DA22DE280EE1DE28D8A4120020EE04F015
:101C48000650D9260750DA22000EDE6E000EDD6E31
:101C5800120012000600FACF0AF0FBCF0BF0E9CF12
:101C68000CF0EACF0DF0E1CF0EF0E2CF0FF0D9CFB4
:101C780010F0DACF11F0F3CF12F0F4CF13F0F6CF63
:101C880014F0F7CF15F0F8CF16F0F5CF17F063C0C2
:101C980018F064C019F065C01AF066C01BF0F2A411
:101CA80003D019EC14F00DD0F2A203D009EC15F012
:101CB80008D0F0A003D0DFEC14F003D0F0B248EC69
:101CC80014F01BC066F01AC065F019C064F018C0A3
:101CD80063F017C0F5FF16C0F8FF15C0F7FF14C072
:101CE800F6FF13C0F4FF12C0F3FF11C0DAFF10C0F3
:101CF800D9FF0FC0E2FF0EC0E1FF0DC0EAFF0CC024
:101D0800E9FF0BC0FBFF0AC0FAFF639211001F50E6
:101D1800D8B405D01C501D101E10D8A40CD0000E2D
:101D28001C6E000E1D6E000E1E6E12001F2AD8902B
:101D38001E321D321C32000E1C14216E000E1D14A2
:101D4800226EFE0E1E14236E215022102310D8B4CA
:101D58000CD0ECD71F2A010E1C26000E1D22000EE7
:101D68001E22D8901E321D321C32000E1C14216E09
:101D7800000E1D14226EFF0E1E14236E2150221019
:101D88002310D8B406D0E6D71F06D8901C361D36C7
:101D98001E361DBE03D0020E1F60F6D71FA01D9E63
:101DA800D8901F321F501E122050D8A41E8E1CC05F
:101DB8001CF01DC01DF01EC01EF0120001C0D9FF8E
:101DC80002C0DAFFDE2A000EDD2201C0D9FF02C000
:101DD800DAFF3C0EDE18DE10D8A4120001C0D9FFCD
:101DE80002C0DAFF000EDE6E000EDD6E20EE02F09D
:101DF8000150D9260250DA22DE2A000EDD2220EE1A
:101E080002F00150D9260250DA223C0EDE18DE100C
:101E1800D8A4120020EE02F00150D9260250DA228E
:101E2800000EDE6E000EDD6E20EE04F00150D926A5
:101E38000250DA22DE2A000EDD2220EE04F00150E4
:101E4800D9260250DA22180EDE18DE10D8A41200A5
:101E580020EE04F00150D9260250DA22000EDE6E80
:101E6800000EDD6E1200020E01018A19D8A40CD0F2
:101E7800000E0001996F010E9A6FA10E9B6FFF0E65
:101E88009C6F09EC00F034D001018A51D8A404D029
:101E9800DE0E806FFF0E06D08A05D8A404D0E40EAB
:101EA800806FFF0E816F8B51D8A404D0F20E826F21
:101EB800FF0E0AD08B05D8A404D0F60E826FFF0E51
:101EC80003D0FA0E826FFF0E836F000E0001996F28
:101ED800010E9A6FB00E9B6FFF0E9C6F80C19DF034
:101EE80081C19EF082C19FF083C1A0F009EC00F08F
:101EF800030E266E010EA2EC12F0000E2A6E010EE1
:101F08002B6EABEC14F012001EAE16D01CC022F0E3
:101F18001DC023F01EC024F0221E231E241E222AC8
:101F2800000E23222422000E22241C6E000E2320E1
:101F38001D6E800E24201E6E21AE16D01FC022F00A
:101F480020C023F021C024F0221E231E241E222A92
:101F5800000E23222422000E22241F6E000E2320AE
:101F6800206E800E2420216E000E1C1A000E1D1AF1
:101F7800800E1E1A000E1F1A000E201A800E211A3B
:101F88001F501C5C20501D5821501E58D8B002D03C
:101F9800D8901200D8801200000E276E25AE06D009
:101FA800246C251ED8B0252A010E276E23AE06D034
:101FB800226C231ED8B0232A010E271A000E296E80
:101FC800000E286E24502510D8B41CD0010E266EA1
:101FD80004D0D89024362536262A25AEFAD7D890AC
:101FE800283629362450225C25502358D8A005D0FD
:101FF8002450225E2550235A2880D8902532243236
:10200800262EEDD72750D8B404D0286C291ED8B076
:10201800292A28C022F029C023F01200000E246EBD
:10202800000E256E000E266E000E276E2050211021
:1020380022102310D8B42AD0010E286E06D0D890CA
:102048002036213622362336282A23AEF8D7D890D0
:10205800243625362636273620501C5C21501D583C
:1020680022501E5823501F58D8A009D020501C5E5B
:1020780021501D5A22501E5A23501F5A2480D8908E
:102088002332223221322032282EE1D724C01CF0FC
:1020980025C01DF026C01EF027C01FF01200000E3C
:1020A800216E1DAE06D01C6C1D1ED8B01D2A010E57
:1020B800216E1FAE04D01E6C1F1ED8B01F2A1E50E2
:1020C8001F10D8B418D0010E206E04D0D8901E3638
:1020D8001F36202A1FAEFAD71E501C5C1F501D58F1
:1020E800D8A004D01E501C5E1F501D5AD8901F3215
:1020F8001E32202EF1D72150D8B404D01C6C1D1EDE
:10210800D8B01D2A1CC01CF01DC01DF0120082BAD8
:1021180005D0EE0E0101806FFF0E04D0EA0E01011A
:10212800806FFF0E816F8D51D8A404D0CE0E826FC0
:10213800FF0E03D0C50E826FFF0E836F000E0001E5
:10214800996F010E9A6FBB0E9B6FFF0E9C6F82C139
:102158009DF083C19EF080C19FF081C1A0F009EC81
:1021680000F0040E266E010EA2EC12F0000E2A6E8C
:10217800010E2B6EABEC14F01200496E495003ECC3
:1021880013F01CC04AF01DC04BF04AC02AF04BC0E7
:102198002BF0000E2D6E050E2C6E73EC14F02AC079
:1021A80030F02BC031F07EEC13F030C034F031C089
:1021B80035F032C036F0C00E376E7F0E386E440EE2
:1021C800396E5CEC0DF034C046F035C047F036C0CF
:1021D80048F046C043F047C044F048C045F01200FC
:1021E80001018C51D8B404D0EE0E806FFF0E03D0DD
:1021F800EA0E806FFF0E816F000E0001996F010ECD
:102208009A6F8B0E9B6FFF0E9C6F88C19DF089C1E2
:102218009EF086C19FF087C1A0F084C1A1F085C15E
:10222800A2F080C1A3F081C1A4F009EC00F0020E75
:10223800266E010EA2EC12F0000E2A6E010E2B6E15
:10224800ABEC14F012002D502E102F103010D8B413
:1022580024D0010E316E06D0D8902D362E362F366A
:102268003036312A30AEF8D72D50295C2E502A58F6
:102278002F502B5830502C58D8A008D02D50295EFC
:102288002E502A5A2F502B5A30502C5AD890303270
:102298002F322E322D32312EE7D729C029F02AC00D
:1022A8002AF02BC02BF02CC02CF0120084948492BE
:1022B800000E1D6E190E1C6E86EC14F0010E266EB3
:1022C800030E266401D00BD0030ECEEC14F0000EE2
:1022D8001D6E060E1C6E86EC14F0262AF1D7020E2F
:1022E800CEEC14F0000E266E030E266401D0120008
:1022F8002650010D5E0EF324D96E000EF420DA6E1E
:10230800DF50246E000E3BEC12F0262AEDD78E0E1D
:102318002C6E06D0D89027322632253224322C2A29
:10232800000E2414286E000E2514296E000E2614A3
:102338002A6EFF0E27142B6E285029102A102B10F6
:10234800D8A4E8D724C01CF025C01DF026C01EF074
:102358002CC01FF0000E206E8BEC0EF01CC024F079
:102368001DC025F01EC026F01200340EF66E2A0E8F
:10237800F76E000EF86E01EE84F010EE0AF0090018
:10238800F5CFEEFFE550E150FAE1520EF66E2A0E57
:10239800F76E000EF86E00EE5EF010EE05F0090024
:1023A800F5CFEEFFE550E150FAE10101936B926B36
:1023B800916B906B8F6B8E6B63906392000147EF0C
:1023C80009F0000E0001996F010E9A6F750E9B6F50
:1023D800FF0E9C6F92C19DF093C19EF090C19FF03B
:1023E80091C1A0F08EC1A1F08FC1A2F001EC14F050
:1023F8005BC0A3F05CC0A4F05DC0A5F009EC00F0E0
:10240800010E266E010EA2EC12F0000E2A6E010ECD
:102418002B6EABEC14F01200296E1ED0010E246E48
:10242800000E3BEC12F0000E1D6E020E1C6E86ECC8
:1024380014F01200020E266E010EA2EC12F0120029
:10244800100E246E000E3BEC12F0120029C024F08E
:10245800010E3BEC12F012002950080AD8B4F0D74C
:10246800020AD8B4E7D7060AD8B4D8D7EFD7256E6A
:1024780025B002D0849401D08484010E31EC14F08C
:10248800010E31EC14F0849224380F0BCEEC14F0CA
:1024980024500F0BCEEC14F02550D8B405D0320ED2
:1024A8000400E82EFDD71200000E1D6E020E1C6EF1
:1024B80086EC14F01200000E056E01C0D9FF02C0B0
:1024C800DAFFDE50DE10D8A416D020EE02F001505C
:1024D800D9260250DA22DE50DE10D8A40CD020EE25
:1024E80004F00150D9260250DA22DE50DE10D8A4BA
:1024F80002D0010E056E0550120000019651971189
:102508009811D8B406D0000E961B000E971B800EAB
:10251800981B93C087F094C088F095C089F096C046
:102528008AF097C08BF098C08CF062EC0AF087C0F4
:1025380093F088C094F089C095F01200276E09D0F6
:10254800800E05D0C00E03D0900E01D0D00E286E9C
:102558000DD02650010AD8B4F3D7030AD8B4F2D75D
:10256800010AD8B4F1D7070AD8B4F0D72704282627
:1025780028508009246E000E3BEC12F0120020EE69
:1025880002F01C50D9261D50DA22DE06000EDD5A54
:1025980020EE02F01C50D9261D50DA22DE280EE16A
:1025A800DE28D8A4120020EE02F01C50D9261D50B7
:1025B800DA223B0EDE6E000EDD6E1200120020EEF7
:1025C80004F01C50D9261D50DA22DE06000EDD5A12
:1025D80020EE04F01C50D9261D50DA22DE280EE128
:1025E800DE28D8A4120020EE04F01C50D9261D5075
:1025F800DA22170EDE6E000EDD6E12001200226E59
:1026080022C01EF00F0E1E161E461E46C2501E1871
:10261800C30B1E18C26EC282C2B2FED7C350C4CF4B
:102628001EF01F6A1EC01FF01E6A1E10206E1F506B
:10263800216E20C01CF021C01DF0120020EE02F017
:102648001C50D9261D50DA22DE2A000EDD2220EE8B
:1026580002F01C50D9261D50DA223C0EDE18DE107E
:10266800D8A4120020EE02F01C50D9261D50DA2200
:10267800000EDE6E000EDD6E120020EE04F01C501F
:10268800D9261D50DA22DE2A000EDD2220EE04F0C3
:102698001C50D9261D50DA22180EDE18DE10D8A4D8
:1026A800120020EE04F01C50D9261D50DA22000E2C
:1026B800DE6E000EDD6E12001CC0D9FF1DC0DAFFF1
:1026C800DE06000EDD5A20EE02F01C50D9261D5001
:1026D800DA22DE280EE1DE28D8A4120020EE02F06D
:1026E8001C50D9261D50DA223B0EDE6E000EDD6E20
:1026F80012001200000E336E31AE06D0306C311E5F
:10270800D8B0312A010E336E30C01CF031C01DF034
:102718001E6A8E0E1F6E33C020F08BEC0EF01CC0AC
:1027280030F01DC031F01EC032F0120020EE03F070
:102738001C50D9261D50DA22DF2A20EE03F01C5047
:10274800D9261D50DA22020EDE18D8A4120020EE77
:1027580003F01C50D9261D50DA22000EDF6E12003D
:1027680020EE02F00150D9260250DA22DF2A20EEAC
:1027780002F00150D9260250DA22020EDE18D8A43F
:10278800120020EE02F00150D9260250DA22000E83
:10279800DF6E120020EE01F00150D9260250DA2235
:1027A800DF2A20EE01F00150D9260250DA22030E6A
:1027B800DE18D8A4120020EE01F00150D9260250EC
:1027C800DA22000EDF6E12001CC0D9FF1DC0DAFF2E
:1027D800DE2A000EDD221CC0D9FF1DC0DAFF3C0E28
:1027E800DE18DE10D8A412001CC0D9FF1DC0DAFF05
:1027F800000EDE6E000EDD6E1200020EC1EC10F04F
:1028080043C04CF044C04DF045C04EF0000E4F6E32
:10281800C80E506E420E516EE2EC0CF04CC05BF0EC
:102828004DC05CF04EC05DF01200F29401018A5177
:10283800D8B406D08E0E016E010E026EE2EC0EF0D8
:1028480001018C51D8A406D0840E066E010E076EC5
:10285800CFEC0DF024EC15F012001F6E000E216E67
:10286800000E206E03D00400204A212A1F501C6E3F
:102878001D6A20501C5C1D50800A1E6E2150800A63
:102888001E58D8A01200EFD7F09262B412006284EA
:102898008A0E016E010E026EB4EC13F0840E016E06
:1028A800010E026E5FEC12F00009D8B41200010E9E
:1028B80001018C6F120001C0D9FF02C0DAFFDF2AC4
:1028C80001C0D9FF02C0DAFF030EDE18D8A4120037
:1028D80001C0D9FF02C0DAFF000EDF6E12002A50D5
:1028E8002C02F3CF2EF0F4CF2FF02A502D02F35004
:1028F8002F262B502C02F3502F262EC02AF02FC043
:102908002BF01200000E1F6E000E1E6E07D0C80EB0
:1029180004000400E82EFCD71E4A1F2A1E501C5C27
:102928001F501D58D8A01200F2D71C501D101E10A1
:10293800D8B406D0000E1C1A000E1D1A800E1E1ADE
:102948001CC01CF01DC01DF01EC01EF0120009D0D6
:102958002AC0D9FF2BC0DAFFDF5010EC12F02A4A48
:102968002B2A2AC0D9FF2BC0DAFFDF50D8B41200B7
:10297800EFD7000EC26E0C0EC16E040E926E3F0EA3
:10298800936E000E946E000E956E000E966E000EFD
:10299800836E1200236E23C022F0223A835022183D
:1029A8000F0B2218836E010E31EC14F084820400A0
:1029B80000F084921200F09062B212006282020E5D
:1029C80001018A19D8B412008A0E016E010E026E36
:1029D800CEEC13F012001E6E000E1D6E3A0E1E6035
:1029E80005D02F0E1E6402D0010E1D6E1DC01CF0F6
:1029F8001C30120001018C51D8A405D08D05D8A433
:102A080002D0828A1200829A1200F29262B01200F8
:102A180062808A0E016E010E026E5FEC14F01200E5
:102A2800000EC26EC280890EC06E12002D00020018
:102A38000000020000000B0ED76EDC0ED66E1200EE
:0F2A48000B0ED76EDC0ED66E1200280C0106079F
:10FEFE0000010000000A00000064000000E803009A
:10FF0E000010270000A086010040420F0080969846
:10FF1E000000E1F50500CA9A3B00803F0020410039
:10FF2E00C842007A44401C4650C34724744997186F
:10FF3E004BBCBE4C6B6E4E03155079AD60F34971E0
:10FF4E0000803FCDCC3DD7233C12833AB7D138C683
:10FF5E002737388635C0D633CC2B32708930E7DB65
:10FF6E002EE53C1E42A20D253032643A2530326415
:10FF7E003A25303264202020252E3266002530327C
:10FF8E00643A253032643A25303264202020543AC7
:10FF9E002573004E6F726D616C2020202020202072
:10FFAE0020002573202020202020257300483A258C
:10FFBE007320533A257300456E61626C65642000B0
:10FFCE0044697361626C656400286E756C6C2900FF
:10FFDE00436C6F636B0054696D6572004F4E200069
:10FFEE004F464600736563006D696E00687273005C
:01FFFE000002
:020000040020DA
:08000000FFFFFFFFFFFFFFFF00
:020000040030CA
:0E000000FF011F1FFF8385FF0FC00FE00F40A1
:00000001FF
